{
  "contractName": "Decentragram",
  "abi": [
    {
      "anonymous": false,
      "inputs": [
        {
          "indexed": false,
          "internalType": "uint256",
          "name": "id",
          "type": "uint256"
        },
        {
          "indexed": false,
          "internalType": "string",
          "name": "hash",
          "type": "string"
        },
        {
          "indexed": false,
          "internalType": "string",
          "name": "description",
          "type": "string"
        },
        {
          "indexed": false,
          "internalType": "uint256",
          "name": "tipAmount",
          "type": "uint256"
        },
        {
          "indexed": false,
          "internalType": "address",
          "name": "author",
          "type": "address"
        }
      ],
      "name": "ImageCreated",
      "type": "event"
    },
    {
      "anonymous": false,
      "inputs": [
        {
          "indexed": false,
          "internalType": "uint256",
          "name": "id",
          "type": "uint256"
        },
        {
          "indexed": false,
          "internalType": "string",
          "name": "hash",
          "type": "string"
        },
        {
          "indexed": false,
          "internalType": "string",
          "name": "description",
          "type": "string"
        },
        {
          "indexed": false,
          "internalType": "uint256",
          "name": "tipAmount",
          "type": "uint256"
        },
        {
          "indexed": false,
          "internalType": "address",
          "name": "author",
          "type": "address"
        }
      ],
      "name": "ImageTipped",
      "type": "event"
    },
    {
      "inputs": [],
      "name": "imageCount",
      "outputs": [
        {
          "internalType": "uint256",
          "name": "",
          "type": "uint256"
        }
      ],
      "stateMutability": "view",
      "type": "function",
      "constant": true
    },
    {
      "inputs": [
        {
          "internalType": "uint256",
          "name": "",
          "type": "uint256"
        }
      ],
      "name": "images",
      "outputs": [
        {
          "internalType": "uint256",
          "name": "id",
          "type": "uint256"
        },
        {
          "internalType": "string",
          "name": "hash",
          "type": "string"
        },
        {
          "internalType": "string",
          "name": "description",
          "type": "string"
        },
        {
          "internalType": "uint256",
          "name": "tipAmount",
          "type": "uint256"
        },
        {
          "internalType": "address",
          "name": "author",
          "type": "address"
        }
      ],
      "stateMutability": "view",
      "type": "function",
      "constant": true
    },
    {
      "inputs": [],
      "name": "name",
      "outputs": [
        {
          "internalType": "string",
          "name": "",
          "type": "string"
        }
      ],
      "stateMutability": "view",
      "type": "function",
      "constant": true
    },
    {
      "inputs": [
        {
          "internalType": "string",
          "name": "_imageHash",
          "type": "string"
        },
        {
          "internalType": "string",
          "name": "_description",
          "type": "string"
        }
      ],
      "name": "uploadImage",
      "outputs": [],
      "stateMutability": "nonpayable",
      "type": "function"
    },
    {
      "inputs": [
        {
          "internalType": "uint256",
          "name": "_id",
          "type": "uint256"
        }
      ],
      "name": "tipImageOwner",
      "outputs": [],
      "stateMutability": "payable",
      "type": "function",
      "payable": true
    }
  ],
  "bytecode": "0x60806040526040518060400160405280600c81526020017f446563656e7472616772616d000000000000000000000000000000000000000081525060009080519060200190620000519291906200006b565b5060006001553480156200006457600080fd5b5062000180565b82805462000079906200014a565b90600052602060002090601f0160209004810192826200009d5760008555620000e9565b82601f10620000b857805160ff1916838001178555620000e9565b82800160010185558215620000e9579182015b82811115620000e8578251825591602001919060010190620000cb565b5b509050620000f89190620000fc565b5090565b5b8082111562000117576000816000905550600101620000fd565b5090565b7f4e487b7100000000000000000000000000000000000000000000000000000000600052602260045260246000fd5b600060028204905060018216806200016357607f821691505b602082108114156200017a57620001796200011b565b5b50919050565b610e5380620001906000396000f3fe60806040526004361061004a5760003560e01c806306fdde031461004f578063848564821461007a5780638567ade8146100bb57806392053b63146100d7578063a91b831414610102575b600080fd5b34801561005b57600080fd5b5061006461012b565b6040516100719190610936565b60405180910390f35b34801561008657600080fd5b506100a1600480360381019061009c91906109a2565b6101b9565b6040516100b2959493929190610a1f565b60405180910390f35b6100d560048036038101906100d091906109a2565b61031f565b005b3480156100e357600080fd5b506100ec610653565b6040516100f99190610a80565b60405180910390f35b34801561010e57600080fd5b5061012960048036038101906101249190610bd0565b610659565b005b6000805461013890610c77565b80601f016020809104026020016040519081016040528092919081815260200182805461016490610c77565b80156101b15780601f10610186576101008083540402835291602001916101b1565b820191906000526020600020905b81548152906001019060200180831161019457829003601f168201915b505050505081565b60026020528060005260406000206000915090508060000154908060010180546101e290610c77565b80601f016020809104026020016040519081016040528092919081815260200182805461020e90610c77565b801561025b5780601f106102305761010080835404028352916020019161025b565b820191906000526020600020905b81548152906001019060200180831161023e57829003601f168201915b50505050509080600201805461027090610c77565b80601f016020809104026020016040519081016040528092919081815260200182805461029c90610c77565b80156102e95780601f106102be576101008083540402835291602001916102e9565b820191906000526020600020905b8154815290600101906020018083116102cc57829003601f168201915b5050505050908060030154908060040160009054906101000a900473ffffffffffffffffffffffffffffffffffffffff16905085565b60008111801561033157506001548111155b61033a57600080fd5b6000600260008381526020019081526020016000206040518060a00160405290816000820154815260200160018201805461037490610c77565b80601f01602080910402602001604051908101604052809291908181526020018280546103a090610c77565b80156103ed5780601f106103c2576101008083540402835291602001916103ed565b820191906000526020600020905b8154815290600101906020018083116103d057829003601f168201915b5050505050815260200160028201805461040690610c77565b80601f016020809104026020016040519081016040528092919081815260200182805461043290610c77565b801561047f5780601f106104545761010080835404028352916020019161047f565b820191906000526020600020905b81548152906001019060200180831161046257829003601f168201915b50505050508152602001600382015481526020016004820160009054906101000a900473ffffffffffffffffffffffffffffffffffffffff1673ffffffffffffffffffffffffffffffffffffffff1673ffffffffffffffffffffffffffffffffffffffff168152505090506000816080015190508073ffffffffffffffffffffffffffffffffffffffff166108fc349081150290604051600060405180830381858888f19350505050158015610539573d6000803e3d6000fd5b5034826060015161054a9190610cd8565b826060018181525050816002600085815260200190815260200160002060008201518160000155602082015181600101908051906020019061058d9291906107fa565b5060408201518160020190805190602001906105aa9291906107fa565b506060820151816003015560808201518160040160006101000a81548173ffffffffffffffffffffffffffffffffffffffff021916908373ffffffffffffffffffffffffffffffffffffffff1602179055509050507f1be5317bca8d3f70dc1efe89958be71bff36cdca33fc00a6423e25eb2f1d492f838360200151846040015185606001518660800151604051610646959493929190610a1f565b60405180910390a1505050565b60015481565b600082511161066757600080fd5b600081511161067557600080fd5b600073ffffffffffffffffffffffffffffffffffffffff163373ffffffffffffffffffffffffffffffffffffffff1614156106af57600080fd5b600160008154809291906106c290610d2e565b91905055506040518060a001604052806001548152602001838152602001828152602001600081526020013373ffffffffffffffffffffffffffffffffffffffff168152506002600060015481526020019081526020016000206000820151816000015560208201518160010190805190602001906107429291906107fa565b50604082015181600201908051906020019061075f9291906107fa565b506060820151816003015560808201518160040160006101000a81548173ffffffffffffffffffffffffffffffffffffffff021916908373ffffffffffffffffffffffffffffffffffffffff1602179055509050507fc1d8dfa99b3f84f95d3f0bc4a768addeb97b83b20aef7f9cb6729e126bafd2f960015483836000336040516107ee959493929190610dbc565b60405180910390a15050565b82805461080690610c77565b90600052602060002090601f016020900481019282610828576000855561086f565b82601f1061084157805160ff191683800117855561086f565b8280016001018555821561086f579182015b8281111561086e578251825591602001919060010190610853565b5b50905061087c9190610880565b5090565b5b80821115610899576000816000905550600101610881565b5090565b600081519050919050565b600082825260208201905092915050565b60005b838110156108d75780820151818401526020810190506108bc565b838111156108e6576000848401525b50505050565b6000601f19601f8301169050919050565b60006109088261089d565b61091281856108a8565b93506109228185602086016108b9565b61092b816108ec565b840191505092915050565b6000602082019050818103600083015261095081846108fd565b905092915050565b6000604051905090565b600080fd5b600080fd5b6000819050919050565b61097f8161096c565b811461098a57600080fd5b50565b60008135905061099c81610976565b92915050565b6000602082840312156109b8576109b7610962565b5b60006109c68482850161098d565b91505092915050565b6109d88161096c565b82525050565b600073ffffffffffffffffffffffffffffffffffffffff82169050919050565b6000610a09826109de565b9050919050565b610a19816109fe565b82525050565b600060a082019050610a3460008301886109cf565b8181036020830152610a4681876108fd565b90508181036040830152610a5a81866108fd565b9050610a6960608301856109cf565b610a766080830184610a10565b9695505050505050565b6000602082019050610a9560008301846109cf565b92915050565b600080fd5b600080fd5b7f4e487b7100000000000000000000000000000000000000000000000000000000600052604160045260246000fd5b610add826108ec565b810181811067ffffffffffffffff82111715610afc57610afb610aa5565b5b80604052505050565b6000610b0f610958565b9050610b1b8282610ad4565b919050565b600067ffffffffffffffff821115610b3b57610b3a610aa5565b5b610b44826108ec565b9050602081019050919050565b82818337600083830152505050565b6000610b73610b6e84610b20565b610b05565b905082815260208101848484011115610b8f57610b8e610aa0565b5b610b9a848285610b51565b509392505050565b600082601f830112610bb757610bb6610a9b565b5b8135610bc7848260208601610b60565b91505092915050565b60008060408385031215610be757610be6610962565b5b600083013567ffffffffffffffff811115610c0557610c04610967565b5b610c1185828601610ba2565b925050602083013567ffffffffffffffff811115610c3257610c31610967565b5b610c3e85828601610ba2565b9150509250929050565b7f4e487b7100000000000000000000000000000000000000000000000000000000600052602260045260246000fd5b60006002820490506001821680610c8f57607f821691505b60208210811415610ca357610ca2610c48565b5b50919050565b7f4e487b7100000000000000000000000000000000000000000000000000000000600052601160045260246000fd5b6000610ce38261096c565b9150610cee8361096c565b9250827fffffffffffffffffffffffffffffffffffffffffffffffffffffffffffffffff03821115610d2357610d22610ca9565b5b828201905092915050565b6000610d398261096c565b91507fffffffffffffffffffffffffffffffffffffffffffffffffffffffffffffffff821415610d6c57610d6b610ca9565b5b600182019050919050565b6000819050919050565b6000819050919050565b6000610da6610da1610d9c84610d77565b610d81565b61096c565b9050919050565b610db681610d8b565b82525050565b600060a082019050610dd160008301886109cf565b8181036020830152610de381876108fd565b90508181036040830152610df781866108fd565b9050610e066060830185610dad565b610e136080830184610a10565b969550505050505056fea264697066735822122014dccc3069c37cbf32c95e18e3647df0b1782ac007dea4c719288a7fcb56e6a264736f6c634300080c0033",
  "immutableReferences": {},
  "source": "// SPDX-License-Identifier: MIT\r\npragma solidity >=0.4.22 <0.9.0;\r\n\r\ncontract Decentragram {\r\n   string public name = \"Decentragram\";\r\n\r\n   uint public imageCount = 0;\r\n   mapping(uint => Image) public images;\r\n\r\n   struct Image {\r\n      uint id; // uint is always positive\r\n      string hash;\r\n      string description;\r\n      uint tipAmount;\r\n      address author;\r\n      // address payable author;\r\n   }\r\n\r\n   event ImageCreated(\r\n      uint id,\r\n      string hash,\r\n      string description,\r\n      uint tipAmount,\r\n      address author\r\n   );\r\n\r\n   event ImageTipped(\r\n      uint id,\r\n      string hash,\r\n      string description,\r\n      uint tipAmount,\r\n      address author\r\n   );\r\n      // address payable author\r\n\r\n   function uploadImage(string memory _imageHash, string memory _description) public{\r\n      require(bytes(_imageHash).length > 0);\r\n      require(bytes(_description).length > 0);\r\n      require(msg.sender != address(0x0));\r\n\r\n\r\n      imageCount++;\r\n      images[imageCount] = Image(imageCount, _imageHash, _description, 0, msg.sender);\r\n      \r\n      emit ImageCreated(imageCount, _imageHash, _description, 0, msg.sender);\r\n   }\r\n\r\n   function tipImageOwner(uint _id) public payable{\r\n      require(_id > 0 && _id <= imageCount);\r\n      Image memory _image = images[_id];\r\n      address payable _author = payable(_image.author);\r\n      _author.transfer(msg.value);\r\n      _image.tipAmount = _image.tipAmount + msg.value;\r\n      images[_id] = _image;\r\n\r\n      emit ImageTipped(_id, _image.hash, _image.description, _image.tipAmount, _image.author);\r\n   }\r\n}\r\n",
  "sourcePath": "C:\\Users\\pin-d\\Desktop\\projects\\web_projects\\tutorials\\Dapp_University\\defi_tutorial\\decentragram\\src\\contracts\\Decentragram.sol",
  "compiler": {
    "name": "solc",
    "version": "0.8.12+commit.f00d7308.Emscripten.clang"
  },
  "schemaVersion": "3.4.5",
  "updatedAt": "2022-03-11T13:15:19.288Z",
  "networkType": "ethereum",
  "devdoc": {
    "kind": "dev",
    "methods": {},
    "version": 1
  },
  "userdoc": {
    "kind": "user",
    "methods": {},
    "version": 1
  }
}